:100000000C9434000C9451000C9451000C94510049
:100010000C9451000C9451000C9451000C9451001C
:100020000C9451000C9451000C9451000C9451000C
:100030000C9451000C9451000C9451000C945100FC
:100040000C9451000C9451000C9451000C945100EC
:100050000C9451000C9451000C9451000C945100DC
:100060000C9451000C94510011241FBECFEFD8E026
:10007000DEBFCDBF11E0A0E0B1E0E2E3F3E002C0FB
:1000800005900D92A032B107D9F721E0A0E2B1E0CE
:1000900001C01D92A132B207E1F70E9484010C94C5
:1000A00097010C940000CF93C82F82958F7085B96B
:1000B00060912001660F660F660F87E20E944B0178
:1000C0006091200170E0660F771F660F771F660F43
:1000D000771F646087E20E944B018091200190E0CD
:1000E000880F991F880F991F880F991F8C2B682FD5
:1000F000646087E20E944B016091200170E0660F0E
:10010000771F660F771F660F771F6C2B87E20E94A1
:100110004B018FE39FE10197F1F700C00000CF9101
:100120000895CF93C82F807F0E9453008C2F829513
:10013000807F0E945300CF9108956295660F660FED
:10014000607C862B80680E9491000895CF93C82F11
:100150006091200170E0660F771F660F771F660FB2
:10016000771F616087E20E944B016091200170E07F
:10017000660F771F660F771F660F771F656087E230
:100180000E944B016091200170E0660F771F660F9F
:10019000771F660F771F6C2B656087E20E944B010B
:1001A0006091200170E0660F771F660F771F660F62
:1001B000771F6C2B616087E20E944B018FE39FE108
:1001C0000197F1F700C00000CF910895CF93C82F99
:1001D000807F0E94A6008C2F8295807F0E94A600BF
:1001E000CF910895CF93DF93EC0103C021960E9435
:1001F000E60088818111FACFDF91CF9108950E94A6
:100200003F011092200180E30E9453002FEF89EFFD
:1002100090E0215080409040E1F700C0000080E372
:100220000E9453008FE39CE90197F1F700C00000A2
:1002300080E30E9453008FE193E00197F1F700C043
:10024000000080E20E9453008FE39CE90197F1F7E0
:1002500000C0000088E20E94910081E00E949100AD
:1002600086E00E94910081E0809320018CE00E9452
:10027000910008958091BC008823E4F7089587B128
:100280008F7C87B98CE08093B8001092B90084E02D
:100290008093BC000895CF93DF93C82FD62F84EAB4
:1002A0008093BC000E943A018091B900887F883019
:1002B00029F08091B900887F8031F1F4CC0FC09390
:1002C000BB0084E88093BC000E943A018091B90091
:1002D000887F883199F4D093BB0084E88093BC0078
:1002E0000E943A018091B900887F883249F484E9FC
:1002F0008093BC0080E005C081E003C082E001C0C3
:1003000083E0DF91CF9108958FEF84B90E943F0180
:100310000E94FF0080E091E00E94F20061E080E036
:100320000E949D008DE091E00E94F200FFCFF894C2
:02033000FFCFFD
:1003320068656C6C6F20776F726C6421004C656528
:1003420020776F6F2073756220626120626F6F0089
:00000001FF
