S0140000506C616E7465725F323032312E7372656316
S11300000C9434000C9446000C9446000C94460066
S11300100C9446000C9446000C9446000C94460044
S11300200C9446000C9446000C9446000C94460034
S11300300C9446000C9446000C9446000C94460024
S11300400C9446000C9446000C9446000C94460014
S11300500C9446000C9446000C9446000C94460004
S11300600C9446000C94460011241FBECFEFD8E038
S1130070DEBFCDBF21E0A0E0B1E001C01D92A13000
S1130080B207E1F70E9438010C9462010C9400005D
S1130090CF93C82F8091000190E0880F991F880F9B
S11300A0991F880F991F8C2B682F646087E20E9428
S11300B0FF0083EF91E00197F1F700C00000609129
S11300C0000170E0660F771F660F771F660F771FBA
S11300D06C2B87E20E94FF0083EF91E00197F1F718
S11300E000C00000CF910895CF93C82F807F0E9455
S11300F048008C2F8295807F0E944800CF910895FC
S1130100CF93C82F6091000170E0660F771F660FD0
S1130110771F660F771F682B656087E20E94FF00D8
S113012083EF91E00197F1F700C0000060910001B6
S113013070E0660F771F660F771F660F771F6C2BB3
S1130140616087E20E94FF0083EF91E00197F1F77D
S113015000C00000CF910895CF93C82F8295807F6F
S11301600E9480008C2F807F0E948000CF91089590
S11301700E94F3001092000180E30E94480087E887
S113018093E10197F1F700C0000080E30E9448006A
S113019083EC99E00197F1F700C0000080E30E942E
S11301A0480092E49A95F1F700C080E20E9448006A
S11301B083EC99E00197F1F700C0000088E20E9407
S11301C0740081E00E94740086E00E94740081E063
S11301D0809300018CE00E94740008958091BC001B
S11301E08823E4F7089587B18F7C87B98CE08093E6
S11301F0B8001092B90084E08093BC000895CF93B6
S1130200DF93C82FD62F84EA8093BC000E94EE00AF
S11302108091B900887F883029F08091B900887F67
S11302208031F1F4CC0FC093BB0084E88093BC0010
S11302300E94EE008091B900887F883199F4D093B0
S1130240BB0084E88093BC000E94EE008091B9005A
S1130250887F883249F484E98093BC0080E005C03B
S113026081E003C082E001C083E0DF91CF91089573
S11302708FEF84B90E94F3000E94B80000E010E000
S11302801DC080ED0E947400C0E0D0E009C08C2F36
S113029020E2029F800D1124805E0E94AC00219612
S11302A0C031D105A4F38FEF97EA21E68150904045
S11302B02040E1F700C000000F5F1F4F033011051D
S10B02C004F3DCCFF894FFCF36
S9030000FC
