:100000000C9434000C9451000C9451000C94510049
:100010000C9451000C9451000C9451000C9451001C
:100020000C9451000C9451000C9451000C9451000C
:100030000C9451000C9451000C9451000C945100FC
:100040000C9451000C9451000C94B2010C94840156
:100050000C9451000C9451000C9451000C945100DC
:100060000C9451000C94510011241FBECFEFD8E026
:10007000DEBFCDBF11E0A0E0B1E0E8EDF5E002C0E9
:1000800005900D92A031B107D9F722E0A0E1B1E0CF
:1000900001C01D92A539B207E1F70E94A7020C9496
:1000A000EA020C940000CF93C82F82958F7085B917
:1000B00060919402660F660F660F87E20E944B0103
:1000C0006091940270E0660F771F660F771F660FCE
:1000D000771F646087E20E944B018091940290E058
:1000E000880F991F880F991F880F991F8C2B682FD5
:1000F000646087E20E944B016091940270E0660F99
:10010000771F660F771F660F771F6C2B87E20E94A1
:100110004B018FE39FE10197F1F700C00000CF9101
:100120000895CF93C82F807F0E9453008C2F829513
:10013000807F0E945300CF9108956295660F660FED
:10014000607C862B80680E9491000895CF93C82F11
:100150006091940270E0660F771F660F771F660F3D
:10016000771F616087E20E944B016091940270E00A
:10017000660F771F660F771F660F771F656087E230
:100180000E944B016091940270E0660F771F660F2A
:10019000771F660F771F6C2B656087E20E944B010B
:1001A0006091940270E0660F771F660F771F660FED
:1001B000771F6C2B616087E20E944B018FE39FE108
:1001C0000197F1F700C00000CF910895CF93C82F99
:1001D000807F0E94A6008C2F8295807F0E94A600BF
:1001E000CF910895CF93DF93EC0103C021960E9435
:1001F000E60088818111FACFDF91CF9108950E94A6
:100200003F011092940280E30E9453002FEF89EF88
:1002100090E0215080409040E1F700C0000080E372
:100220000E9453008FE39CE90197F1F700C00000A2
:1002300080E30E9453008FE193E00197F1F700C043
:10024000000080E20E9453008FE39CE90197F1F7E0
:1002500000C0000088E20E94910081E00E949100AD
:1002600086E00E94910081E0809394028CE00E94DD
:10027000910008958091BC008823E4F7089587B128
:100280008F7C87B98CE08093B8001092B90084E02D
:100290008093BC000895CF93DF93C82FD62F84EAB4
:1002A0008093BC000E943A018091B900887F883019
:1002B00029F08091B900887F8031F1F4CC0FC09390
:1002C000BB0084E88093BC000E943A018091B90091
:1002D000887F883199F4D093BB0084E88093BC0078
:1002E0000E943A018091B900887F883249F484E9FC
:1002F0008093BC0080E005C081E003C082E001C0C3
:1003000083E0DF91CF9108951F920F920FB60F9265
:1003100011242F938F939F93EF93FF939FB7F8949C
:100320002091930180919201281771F0E091920140
:10033000F0E0EC56FE4F80818093C60080919201E0
:100340008F5F8093920103C088E98093C1009FBFB3
:10035000FF91EF919F918F912F910F900FBE0F9072
:100360001F9018951F920F920FB60F9211248F9322
:100370009F93EF93FF939FB7F894E091100181E072
:100380008E0F80931001F0E08091C600EE5EFE4F6C
:100390008083809111018F77809311019FBFFF911E
:1003A000EF919F918F910F900FBE0F901F90189516
:1003B0009B01AC01F89460E079E08DE390E00E944D
:1003C000C802DA01C9010197A109B109B695A7953B
:1003D000979587959093C5008093C40082E08093A1
:1003E000C00088E98093C10086E08093C20010922B
:1003F00092011092930110921001109211017894C1
:100400000895DC012FB7F8940BC0E091930191E0BF
:100410009E0F90939301F0E01196EC56FE4F80836F
:100420008C918111F2CF88EB8093C1002FBF08958A
:100430009091110180911001981799F02FB7F894BD
:10044000E091110181E08E0F80931101F0E0EE5EEA
:10045000FE4F8081909111019F77909311012FBFE2
:10046000089580E008952FB7F8948091100190913D
:100470001101891719F08058891B01C0891B2FBFF2
:100480000895CF93DF93EC0160E080E00E949D002F
:1004900080E091E00E94F200CE010E94F200CE01C5
:1004A0000E9401022FEF81EE94E0215080409040A5
:1004B000E1F700C0000040C00E941802D82F61E0A0
:1004C00080E00E949D008D2F0E94E60089E2D89F67
:1004D000812D112482958F70805D0E94E6009DEC35
:1004E000D99FC12D1124C695C695C695C99F912D3A
:1004F0001124969596959695990F892F880F880FB8
:10050000980F8C2F891B805D0E94E600CC0F8C2FEA
:10051000880F880FC80F8D2F8C1B805D0E94E6000E
:1005200080E20E94E6002FEF83ED90E321508040AF
:100530009040E1F700C000000E9433028111BCCF5F
:1005400086E091E00E94F200DF91CF9108950E9431
:100550003F010E94FF0060E072EC81E090E00E94A9
:10056000D8012FEF8BE792E9215080409040E1F7CE
:1005700000C000008BE091E00E9441022FEF83E277
:1005800094EF215080409040E1F700C00000F2CF8E
:10059000A1E21A2EAA1BBB1BFD010DC0AA1FBB1F87
:1005A000EE1FFF1FA217B307E407F50720F0A21BF9
:1005B000B30BE40BF50B661F771F881F991F1A9466
:1005C00069F760957095809590959B01AC01BD0190
:0805D000CF010895F894FFCF5C
:1005D80053454E442D00202020200041540D0A0090
:00000001FF
